:020000040800F2
:10000000581000200501000887040008D9020008E4
:100010008503000891010008510600080000000057
:10002000000000000000000000000000F5040008CF
:100030009501000800000000B9040008E10500086F
:100040001F0100081F0100081F0100081F01000810
:100050001F0100081F0100081F0100081F01000800
:100060001F0100081F0100081F0100081F010008F0
:100070001F0100081F0100081F0100081F010008E0
:100080001F0100081F0100081F0100081F010008D0
:100090001F0100081F0100081F0100081F010008C0
:1000A0001F0100081F0100081F0100081F010008B0
:1000B0001F0100081F0100081F0100081F010008A0
:1000C0001F0100081F0100081F0100081F01000890
:1000D0001F0100081F0100081F0100081F01000880
:1000E0001F0100081F0100081F010008DFF810D0E1
:1000F00000F01AF80048004773060008AFF30080CC
:10010000581000200648804706480047FEE7FEE7F3
:10011000FEE7FEE7FEE7FEE7FEE7FEE7FEE7FEE7B7
:10012000F1050008ED000008064C074D06E0E06808
:1001300040F0010394E8070098471034AC42F6D32E
:10014000FFF7D8FF80060008A00600081CB500F0E5
:10015000C5F806480090142001906946044800F054
:1001600013F90449024800F08BF91CBDDD040008B6
:10017000180000208904000810B5034801680348EE
:1001800000F01FF910BD000014000020180000202E
:1001900000BFFEE770472DE9F0410246002500262A
:1001A000002000230024002791F803C00CF00F0565
:1001B00091F803C00CF0100CBCF1000F03D091F8C3
:1001C00002C04CEA050591F800C0BCF1000F31D027
:1001D000146800202BE04FF0010C0CFA00F3B1F88A
:1001E00000C00CEA03069E4220D183004FF00F0CA2
:1001F0000CFA03F7BC4305FA03FC4CEA040491F83B
:1002000003C0BCF1280F06D14FF0010C0CFA00FC22
:10021000C2F814C00AE091F803C0BCF1480F05D140
:100220004FF0010C0CFA00FCC2F810C0401C08286A
:10023000D1D31460B1F800C0BCF1FF0F34DD5468B5
:1002400000202EE000F1080C4FF0010808FA0CF332
:10025000B1F800C00CEA03069E4221D183004FF0A2
:100260000F0C0CFA03F7BC4305FA03FC4CEA040438
:1002700091F803C0BCF1280F05D100F1080C08FA71
:100280000CF8C2F8148091F803C0BCF1480F07D1F4
:1002900000F1080C4FF0010808FA0CF8C2F81080C1
:1002A000401C0828CED35460BDE8F08102460020EF
:1002B00093680B400BB1012000E00020704702461C
:1002C0000020D3680B400BB1012000E000207047F4
:1002D000416170470161704700BFFEE738B52448AF
:1002E00000684FF47A72B0FBF2F1481EB0F1807FE3
:1002F00000D31BE0481E4FF0E022506150170F2240
:10030000002804DB13071C0E1A4B1C5406E01307CD
:100310001D0E194B00F00F04241F1D5500BF0020B7
:100320004FF0E02290610720106100BF01211420EE
:1003300000F0C4F80120ADF8000048208DF803005B
:1003400069460E48FFF727FF4FF40050ADF8000054
:1003500010208DF8030003208DF80200694608483C
:10036000FFF719FF4FF400510548FFF7B3FF38BD01
:100370000000002000E400E018ED00E0000801406B
:100380000010014000BFFEE700B101B97047002234
:100390000270427042608260C26002744261027602
:1003A000FA22C26192000262642242624A68826258
:1003B0000A68C2620022026342638263C26300BFB2
:1003C000E4E770B504460D460CB1E06A00B970BDB3
:1003D000E06A804706462178B14204D0607810B9BF
:1003E000012060706560607808B36068281AA16AAF
:1003F00088421CD3002060702078B04217D026704D
:10040000012E05D1A560206B88B1206B80470EE0DE
:10041000E560606B08B1606B8047A068281A216AAC
:10042000884202D2207E401C207600202074207852
:10043000012812D1A068281A216A88420DD3606968
:10044000281A616A884208D3207C401C20746561A8
:10045000E06B10B1207CE16B8847207870B9207E7A
:1004600000280BDDE068281AE169884206D3A06BFA
:1004700010B1207EA16B88470020207600BFA6E740
:1004800000B181637047704710B50446012C0FD14D
:1004900041030848FFF713FF012804D14103054831
:1004A000FFF716FF04E04FF400510248FFF712FF78
:1004B00010BD0000001001407047000029B1064A3D
:1004C00092690243044B9A6104E0034A92698243B1
:1004D000014B9A61704700000010024010B50121E5
:1004E0000348FFF7E3FE08B9012010BD0020FCE738
:1004F00000080140704710B500F002F810BD000080
:100500000CB50020019000903348006840F4803022
:100510003149086000BF3048006800F400300090A6
:100520000198401C0190009818B90198B0F5A06F8F
:10053000F1D12948006800F4003010B1012000908A
:1005400001E0002000900098012843D12348006872
:1005500040F01000214908600846006820F00700BC
:1005600008600846006840F0020008601A484068C9
:10057000194948600846406848600846406840F4A9
:10058000806048600846406820F47C104860084657
:10059000406840F4E81048600846006840F0807009
:1005A000086000BF0C48006800F000700028F9D017
:1005B0000948406820F00300074948600846406841
:1005C00040F00200486000BF0348406800F00C00A3
:1005D0000828F9D10CBD00000010024000200240A4
:1005E00002480068401C0149086070471400002060
:1005F00010B51348006840F0010011490860084632
:100600004068104908400E494860084600680E4995
:1006100008400B4908600846006820F48020086004
:100620000846406820F4FE0048604FF41F008860D0
:10063000FFF761FF4FF000600449086010BD000043
:10064000001002400000FFF8FFFFF6FE08ED00E09A
:1006500000BFFEE702E008C8121F08C1002AFAD155
:1006600070477047002001E001C1121F002AFBD132
:100670007047FFF76BFD01E0FFF77EFDFCE7000030
:10068000A006000800000020180000005406000822
:10069000B80600081800002040100000640600089A
:1006A00000A24A0400000000000000000102030450
:0806B000060708090000000024
:04000005080000ED02
:00000001FF
