:020000040800F2
:100000006810002005010008970900081D07000876
:10001000210700089D0400084D0F000800000000A3
:10002000000000000000000000000000710C00084B
:10003000A104000800000000290B00085D0D000865
:100040001F0100081F0100081F0100081F01000810
:100050001F0100081F0100081F0100081F01000800
:100060001F0100081F0100081F0100081F010008F0
:100070001F0100081F0100081F0100081F010008E0
:100080001F0100081F0100081F0100081F010008D0
:100090001F0100081F0100081F0100081F010008C0
:1000A0001F0100081F0100081F0100081F010008B0
:1000B0001F0100081F0100081F0100081F010008A0
:1000C0001F0100081F0100081F0100081F01000890
:1000D0001F0100081F0100081F0100081F01000880
:1000E0001F0100081F0100081F010008DFF810D0E1
:1000F00000F0F2F8004800476F0F0008AFF30080EF
:10010000681000200648804706480047FEE7FEE7E3
:10011000FEE7FEE7FEE7FEE7FEE7FEE7FEE7FEE7B7
:10012000750D0008ED000008D2B201E000F8012BC7
:10013000491EFBD270470022F6E710B513460A4667
:1001400004461946FFF7F0FF204610BD80EA010281
:1001500010B502F00043400022D04A001FD0010E2B
:1001600001EB1261C0F35600C2F3560240F40000E6
:1001700042F40002A0FB022000047F39140400D0E6
:10018000401C50EA124001D44000491EC2B20C0685
:1001900004EBD010401C4008802A02D003E000206D
:1001A00010BD20F00100002900DA0020184310BD26
:1001B00030B480EA010202F0004530F0004221F044
:1001C000004013D090B1C30DD40DC2F31601C0F39B
:1001D0001600E41A41F4000140F400027D3491421B
:1001E00001D3641C00E04900002C02DA30BC00207E
:1001F00070474FF400000023914201D3891A034352
:1002000040084FEA4101F7D151B1914202D14FF07C
:10021000004105E002D24FF0010101E06FF0010161
:1002200003EBC450284430BC00F01EB820F000405E
:10023000C10DC0F3160040F400007F2901DA002050
:100240007047962903DCC1F19601C8407047963982
:1002500088407047002801DBC0F10040002901DB25
:10026000C1F10041884270470029A8BF7047401C77
:10027000490008BF20F00100704710B4B0FA80FCBC
:1002800000FA0CF050EA010404BF10BC704749B1F9
:10029000CCF1200421FA04F411FA0CF118BF012169
:1002A00021430843A3EB0C01CB1D4FEA00614FEA49
:1002B000102042BF002010BC704700EBC350104418
:1002C0000029A4BF10BC7047401C490008BF20F0A3
:1002D000010010BC70470000064C074D06E0E068C6
:1002E00040F0010394E8070098471034AC42F6D37D
:1002F000FFF700FF880F0008A80F000800B589B0BD
:1003000024216846FFF717FF094800900120ADF847
:100310000400084804904FF47A700690C8200890B2
:10032000642007906946044800F0BEFA09B000BD99
:1003300000080140850A00082400002010B502488A
:1003400000F0E9FA10BD00002400002010B50446BA
:100350002CB900220221054800F0D0F904E0012266
:100360000221024800F0CAF910BD00000008014057
:1003700010B500F065FC00F0D5F900F035FA10BDBD
:100380002DE9F041044600212046FFF763FF02D823
:100390004FF07E5500E0194D204620F000410C46FC
:1003A00000212846FFF756FF0BD8012251021448BE
:1003B00000F0A4F900224FF48061114800F09EF98A
:1003C0000AE000224FF400710D4800F097F9012275
:1003D00091020B4800F092F90A492046FFF7E8FE27
:1003E00080460949FFF7B2FE0746FFF71FFF86B2B6
:1003F0003146064800F056FDBDE8F081000080BFA0
:10040000000801400000C84200C07944002C0140AF
:100410002DE9F041044600212046FFF71BFF02D8DA
:100420004FF07E5500E0184D204620F000410C466C
:1004300000212846FFF70EFF0AD801222021134889
:1004400000F05CF900228021104800F057F909E023
:10045000002220210D4800F051F9012280210B4893
:1004600000F04CF90A492046FFF7A2FE80460949F0
:10047000FFF76CFE0746FFF7D9FE86B23146064805
:1004800000F010FDBDE8F081000080BF000C0140CD
:100490000000C84200C079440008004000BFFEE7E9
:1004A0007047000070B5044600F010F80648026876
:1004B0004068151940F1000600BF03480168406814
:1004C000491BB041F9D370BD1800002010B586B0AB
:1004D00025480078002844D10120234908701421C0
:1004E00001A8FFF728FE4FF0E020006920F001008E
:1004F0004FF0E021086100211C4A1160516001A801
:1005000000F034FB4FF0E020006940F002004FF0B3
:10051000E021086100211648C1774FF47A710298F2
:10052000B0FBF1F4B4F1807F09D3E4084FF0E02090
:10053000006920F004004FF0E021086107E04FF06F
:10054000E020006940F004004FF0E0210861601EE7
:100550004FF0E02148610846006940F00100086161
:1005600000BF06B010BD00002000002018000020D1
:1005700000ED00E070B504460D460DB1012000E02D
:10058000002006460F48844204D13146042000F082
:10059000DDFA16E00C48844204D13146082000F010
:1005A000D5FA0EE00948844204D13146102000F00B
:1005B000CDFA06E00648844203D13146202000F0FF
:1005C000C5FA70BD00080140000C01400010014058
:1005D000001401402DE9F0410246002500260020CC
:1005E00000230024002791F803C00CF00F0591F8B8
:1005F00003C00CF0100CBCF1000F03D091F802C046
:100600004CEA050591F800C0BCF1000F31D0146828
:1006100000202BE04FF0010C0CFA00F3B1F800C001
:100620000CEA03069E4220D183004FF00F0C0CFA17
:1006300003F7BC4305FA03FC4CEA040491F803C039
:10064000BCF1280F06D14FF0010C0CFA00FCC2F8E7
:1006500014C00AE091F803C0BCF1480F05D14FF077
:10066000010C0CFA00FCC2F810C0401C0828D1D3C1
:100670001460B1F800C0BCF1FF0F34DD54680020F5
:100680002EE000F1080C4FF0010808FA0CF3B1F865
:1006900000C00CEA03069E4221D183004FF00F0CEC
:1006A0000CFA03F7BC4305FA03FC4CEA040491F886
:1006B00003C0BCF1280F05D100F1080C08FA0CF8B2
:1006C000C2F8148091F803C0BCF1480F07D100F1C3
:1006D000080C4FF0010808FA0CF8C2F81080401C12
:1006E0000828CED35460BDE8F0810246002093680C
:1006F0000B400BB1012000E0002070470AB10161FE
:1007000000E041617047000010B5FFF7DFFE0249CD
:100710000868496810BD00001800002000BFFEE70F
:1007200000BFFEE700B589B0002008900121042039
:1007300000F00CFA4FF4C060ADF8200010208DF8E6
:10074000230002208DF8220008A92548FFF742FF68
:100750000121042000F0FAF94FF48070ADF8200078
:1007600018208DF8230002208DF8220008A91C48CB
:10077000FFF730FF0121C80200F0E8F900200590E2
:1007800006900790ADF8160040F2E730ADF818007B
:100790000020ADF814008DF81C0005A9114800F0E8
:1007A00083FB002001900290039004906020ADF83C
:1007B00004000020ADF80C000120ADF80600002078
:1007C000ADF80A0001A9074800F020FB0121054807
:1007D00000F00CFB0121034800F0FCFA09B000BD59
:1007E00000080140002C014000B589B000200890AD
:1007F0000121082000F0AAF9A020ADF82000102067
:100800008DF8230002208DF8220008A92448FFF764
:10081000E1FE0121082000F099F94020ADF8200008
:1008200018208DF8230002208DF8220008A91C480A
:10083000FFF7D0FE0121042000F078F90020059098
:1008400006900790ADF8160040F2E730ADF81800BA
:100850000020ADF814008DF81C0005A9114800F027
:1008600023FB002001900290039004906020ADF8DB
:1008700004000020ADF80C000120ADF806000020B7
:10088000ADF80A0001A9074800F0C0FA01210548A7
:1008900000F0ACFA0121034800F09CFA09B000BD59
:1008A000000C01400008004038B504460D46286899
:1008B0002060A888A080A868A060E868E060286937
:1008C000206168696061A869A061286A2062E8699E
:1008D000E06101212068FFF74DFEA088ADF800001F
:1008E00048208DF8030069462068FFF773FEA06971
:1008F00010B94FF47A70A061206A08B9C82020624C
:10090000002004F8240F60706060A060E060207434
:100910002076243C38BD70B50446FFF7F5FE064648
:1009200094F82500F8B1A06A0A30B0422CD8A1880A
:100930002068FFF7DAFE08B9012000E00020054634
:1009400094F82400A84208D0012D03D1204600F0DD
:1009500073F802E0204600F079F884F82450002073
:1009600084F8250010E0A1882068FFF7BEFE08B9D2
:10097000012000E00020054694F82400A84203D09E
:10098000A662012084F8250094F8241032462046FF
:1009900000F002F870BD70472DE9F04104460E46A4
:1009A000154694F82400012829D194F8340098B908
:1009B000E06A20B3E06A281AA16988421FD90120A1
:1009C00084F83400606918B194F83400616988478C
:1009D000FFF79AFEA06312E0A06B281AE169884233
:1009E0000DD9FFF791FEA06394F83400401C84F801
:1009F0003400606918B194F834006169884794F84C
:100A00003C00002816DD94F8240098B9FFF77CFE1E
:100A1000226B831A61F100010020226AD21A8841F8
:100A200008D2206918B194F83C0021698847002059
:100A300084F83C00BDE8F08110B50446FFF764FE81
:100A4000E062A06808B1A068804710BD10B50446F8
:100A5000FFF75AFE2063E06808B1E0688047002095
:100A600084F83400D4E90B10401AA169884205D2F9
:100A700094F83C00401C84F83C0002E0002084F81C
:100A80003C0010BD10B50446012C1BD10E48007867
:100A900008B9012000E000200B49087008460078E2
:100AA000FFF754FC0848007830B10848FFF768FCAD
:100AB0000648FFF7ADFC05E00020FFF761FC0020D1
:100AC000FFF7A6FC10BD000000000020000020423F
:100AD00010B50120FFF73AFC1048FFF751FC0F4812
:100AE000FFF796FC41F28830FFF7DCFC0C48FFF77B
:100AF00047FC0B48FFF78CFC4FF4FA60FFF7D2FC81
:100B00000848FFF73DFC0748FFF782FC4FF4FA6006
:100B1000FFF7C8FC0020FFF719FC10BD0000F041F2
:100B2000000020420000B4427047000029B1064A8C
:100B3000D2690243044BDA6104E0034AD26982437A
:100B4000014BDA61704700000010024029B1064AEB
:100B500092690243044B9A6104E0034A926982431A
:100B6000014B9A61704700000010024030B500212F
:100B70000022002400232D4D6D6805F00C0121B1E9
:100B8000042905D0082923D105E0294D056022E07C
:100B9000274D05601FE0254D6D6805F47012234D4B
:100BA0006D6805F48034022505EB92421CB9214D95
:100BB000554305600BE01D4D6D6805F400351DB112
:100BC0001C4D5543056002E0194D5543056002E098
:100BD000174D056000BF00BF144D6D6805F0F001B2
:100BE0000909154D6B5C0568DD4045600F4D6D686A
:100BF00005F4E061090A104D6B5C4568DD408560D5
:100C00000A4D6D6805F46051C90A0B4D6B5C45686F
:100C1000DD40C560054D6D6805F44041890B074D09
:100C20006B5CC568B5FBF3F5056130BD0010024093
:100C300000127A0000093D00010000201100002090
:100C400008B501210420FFF781FF00200090022059
:100C5000ADF8000010208DF8030002208DF802008E
:100C600069460248FFF7B6FC08BD000000080140D5
:100C7000704710B500F002F810BD00000CB5002060
:100C8000019000903348006840F48030314908609A
:100C900000BF3048006800F4003000900198401C0C
:100CA0000190009818B90198B0F5A06FF1D12948CA
:100CB000006800F4003010B10120009001E0002035
:100CC00000900098012843D12348006840F01000AC
:100CD000214908600846006820F0070008600846BF
:100CE000006840F0020008601A48406819494860EE
:100CF0000846406848600846406840F480604860A4
:100D00000846406820F47C1048600846406840F47B
:100D1000E81048600846006840F08070086000BF36
:100D20000C48006800F000700028F9D009484068BD
:100D300020F00300074948600846406840F0020080
:100D4000486000BF0348406800F00C000828F9D153
:100D50000CBD00000010024000200240044803685F
:100D600040685A1C40F1000001490A604860704721
:100D70001800002010B51348006840F00100114928
:100D8000086008464068104908400E494860084617
:100D900000680E4908400B4908600846006820F4C6
:100DA000802008600846406820F4FE0048604FF448
:100DB0001F008860FFF75DFF4FF000600449086086
:100DC00010BD0000001002400000FFF8FFFFF6FE1B
:100DD00008ED00E021B1028842F00102028004E047
:100DE00002884FF6FE731A400280704731B1B0F8A6
:100DF000442042F40042A0F8442005E0B0F844202A
:100E0000C2F30E02A0F844207047000070B5002421
:100E100000220023058C4FF6FE7635400584028CB7
:100E20008388048B4FF68F752C40B51E2C400D889F
:100E30002C43751E2A400D892A434D882A43144DA0
:100E4000A8420BD0134DA84208D0134DA84205D09C
:100E5000124DA84202D0124DA84213D14FF6F77599
:100E60002A404D892A434FF6FB752A408D882A4334
:100E70004FF6FF652B404FF6FF552B408D892B43D6
:100E8000CD892B4383800483CD888586028470BD01
:100E9000002C01400034014000400140004401406A
:100EA0000048014081867047002202881D4B98420D
:100EB0000ED01D4B98420BD0B0F1804F08D01B4B89
:100EC000984205D01A4B984202D01A4B984204D14E
:100ED0004FF68F731A404B881A43174B984207D02E
:100EE000164B984204D04FF6FF431A40CB881A4362
:100EF00002808B8883850B8803850A4B98420BD030
:100F0000094B984208D00E4B984205D00D4B9842A1
:100F100002D00D4B984201D10B7A038601238382C4
:100F200070470000002C01400034014000040040E4
:100F300000080040000C0040001000400014004079
:100F400000400140004401400048014000BFFEE76E
:100F500002E008C8121F08C1002AFAD17047704782
:100F6000002001E001C1121F002AFBD17047FFF7EA
:100F7000ADFAFFF7C3F9FFF7FBF9FFF7A9FD01E0B1
:100F8000FFF7DCF9FCE70000A80F000800000020D4
:100F900024000000500F0008CC0F0008240000209F
:100FA00044100000600F0008000000000001020370
:100FB00004010203040607080902040608000000F1
:0C0FC00000000000000000000000000025
:04000005080000ED02
:00000001FF
