:020000040800F2
:10000000A0100020050100083709000805060008B7
:10001000B106000899040008610D00080000000006
:100020000000000000000000000000008D0A000831
:100030009D04000800000000E9090008790B000891
:100040001F0100081F0100081F0100081F01000810
:100050001F0100081F0100081F0100081F01000800
:100060001F0100081F0100081F0100081F010008F0
:100070001F0100081F0100081F0100081F010008E0
:100080001F0100081F0100081F0100081F010008D0
:100090001F0100081F0100081F0100081F010008C0
:1000A0001F0100081F0100081F0100081F010008B0
:1000B0001F0100081F0100081F0100081F010008A0
:1000C0001F0100081F0100081F0100081F01000890
:1000D0001F0100081F0100081F0100081F01000880
:1000E0001F0100081F0100081F010008DFF810D0E1
:1000F00000F0E0F800480047830D0008AFF30080EF
:10010000A01000200648804706480047FEE7FEE7AB
:10011000FEE7FEE7FEE7FEE7FEE7FEE7FEE7FEE7B7
:10012000890B0008ED00000880EA010210B502F01A
:100130000043400022D04A001FD0010E01EB1261A3
:10014000C0F35600C2F3560240F4000042F400022D
:10015000A0FB022000047F39140400D0401C50EAA8
:10016000124001D44000491EC2B20C0604EBD0106C
:10017000401C4008802A02D003E0002010BD20F07F
:100180000100002900DA0020184310BD30B480EAD5
:10019000010202F0004530F0004221F0004013D08F
:1001A00090B1C30DD40DC2F31601C0F31600E41ACA
:1001B00041F4000140F400027D34914201D3641CFB
:1001C00000E04900002C02DA30BC002070474FF4F8
:1001D00000000023914201D3891A034340084FEAEB
:1001E0004101F7D151B1914202D14FF0004105E0F8
:1001F00002D24FF0010101E06FF0010103EBC450A6
:10020000284430BC00F01EB820F00040C10DC0F3FF
:10021000160040F400007F2901DA0020704796297B
:1002200003DCC1F19601C840704796398840704799
:10023000002801DBC0F10040002901DBC1F10041D1
:10024000884270470029A8BF7047401C490008BF7A
:1002500020F00100704710B4B0FA80FC00FA0CF0F6
:1002600050EA010404BF10BC704749B1CCF120042E
:1002700021FA04F411FA0CF118BF012121430843BB
:10028000A3EB0C01CB1D4FEA00614FEA102042BFE7
:10029000002010BC704700EBC35010440029A4BFDD
:1002A00010BC7047401C490008BF20F0010010BC82
:1002B00070470000064C074D06E0E06840F001037F
:1002C00094E8070098471034AC42F6D3FFF712FFCA
:1002D000980D0008B80D00081CB500F095F9142021
:1002E00001900A4800906946094800F0A5FA0949BA
:1002F000074800F01DFB084800906946074800F0D9
:100300009BFA0749054800F013FB1CBD2D0A0008A5
:100310001C00002039090008450A00085C00002084
:100320008909000810B505480168054800F0A1FAE0
:1003300002480168034800F09CFA10BD1400002038
:100340001C0000205C00002010B504462CB90022DF
:100350000221054800F051F904E00122022102487F
:1003600000F04BF910BD00000008014010B500F08E
:1003700075FB00F09FF900F0FFF910BD2DE9F04189
:10038000044600212046FFF753FF02D84FF07E5568
:1003900000E0194D204620F000410C46002128467F
:1003A000FFF746FF0BD801225102144800F025F94F
:1003B00000224FF48061114800F01FF90AE000228A
:1003C0004FF400710D4800F018F9012291020B481A
:1003D00000F013F90A492046FFF7D8FE8046094984
:1003E000FFF7A2FE0746FFF70FFF86B23146064829
:1003F00000F062FCBDE8F081000080BF0008014011
:100400000000C84200C07944002C01402DE9F041B1
:10041000044600212046FFF70BFF02D84FF07E551F
:1004200000E0184D204620F000410C4600212846EF
:10043000FFF7FEFE0AD801222021134800F0DDF864
:1004400000228021104800F0D8F809E00022202185
:100450000D4800F0D2F8012280210B4800F0CDF8C1
:100460000A492046FFF792FE80460949FFF75CFEE5
:100470000746FFF7C9FE86B23146064800F01CFC6D
:10048000BDE8F081000080BF000C01400000C842C0
:1004900000C079440008004000BFFEE7704700003C
:1004A000044A116800BF034A1268521A8242FAD302
:1004B00070470000140000202DE9F041024600259D
:1004C0000026002000230024002791F803C00CF030
:1004D0000F0591F803C00CF0100CBCF1000F03D015
:1004E00091F802C04CEA050591F800C0BCF1000F7C
:1004F00031D0146800202BE04FF0010C0CFA00F30F
:10050000B1F800C00CEA03069E4220D183004FF0F0
:100510000F0C0CFA03F7BC4305FA03FC4CEA040485
:1005200091F803C0BCF1280F06D14FF0010C0CFA72
:1005300000FCC2F814C00AE091F803C0BCF1480FF7
:1005400005D14FF0010C0CFA00FCC2F810C0401CA1
:100550000828D1D31460B1F800C0BCF1FF0F34DD1E
:10056000546800202EE000F1080C4FF0010808FA52
:100570000CF3B1F800C00CEA03069E4221D18300BF
:100580004FF00F0C0CFA03F7BC4305FA03FC4CEADE
:10059000040491F803C0BCF1280F05D100F1080C48
:1005A00008FA0CF8C2F8148091F803C0BCF1480FA7
:1005B00007D100F1080C4FF0010808FA0CF8C2F856
:1005C0001080401C0828CED35460BDE8F08102465C
:1005D000002093680B400BB1012000E00020704721
:1005E00002460020D3680B400BB1012000E0002040
:1005F000704741617047016170470AB1016100E0D5
:100600004161704700BFFEE738B5244800684FF4E9
:100610007A72B0FBF2F1481EB0F1807F00D31BE08C
:10062000481E4FF0E022506150170F22002804DBD3
:1006300013071C0E1A4B1C5406E013071D0E194B12
:1006400000F00F04241F1D5500BF00204FF0E022D2
:1006500090610720106100BF0121142000F0D6F93D
:100660000520ADF8000048208DF8030069460E48CB
:10067000FFF722FF4FF40050ADF8000010208DF876
:10068000030003208DF8020069460848FFF714FFB5
:100690004FF400510548FFF7AEFF38BD00000020C1
:1006A00000E400E018ED00E0000801400010014007
:1006B00000BFFEE700B589B00020089001210420AA
:1006C00000F0A4F94FF4C060ADF8200010208DF8C0
:1006D000230002208DF8220008A92548FFF7ECFE30
:1006E0000121042000F092F94FF48070ADF8200051
:1006F00018208DF8230002208DF8220008A91C483C
:10070000FFF7DAFE0121C80200F080F90020059011
:1007100006900790ADF8160040F2E730ADF81800EB
:100720000020ADF814008DF81C0005A9114800F058
:10073000C5FA002001900290039004906020ADF86B
:1007400004000020ADF80C000120ADF806000020E8
:10075000ADF80A0001A9074800F062FA0121054836
:1007600000F04EFA0121034800F03EFA09B000BD46
:1007700000080140002C014000B589B0002008901D
:100780000121082000F042F9A020ADF8200010203F
:100790008DF8230002208DF8220008A92448FFF7D5
:1007A0008BFE0121082000F031F94020ADF8200037
:1007B00018208DF8230002208DF8220008A91C487B
:1007C000FFF77AFE0121042000F010F900200590C7
:1007D00006900790ADF8160040F2E730ADF818002B
:1007E0000020ADF814008DF81C0005A9114800F098
:1007F00065FA002001900290039004906020ADF80B
:1008000004000020ADF80C000120ADF80600002027
:10081000ADF80A0001A9074800F002FA01210548D5
:1008200000F0EEF90121034800F0DEF909B000BD47
:10083000000C01400008004000B101B970470022DF
:100840000270427042608260C2600274426102764D
:10085000FA22C26192000262642242624A688262A3
:100860000A68C2620022026342638263C26300BFFD
:10087000E4E770B504460D460CB1E06A00B970BDFE
:10088000E06A804706462178B14204D0607810B90A
:10089000012060706560607808B36068281AA16AFA
:1008A00088421CD3002060702078B04217D0267098
:1008B000012E05D1A560206B88B1206B80470EE02A
:1008C000E560606B08B1606B8047A068281A216AF8
:1008D000884202D2207E401C20760020207420789E
:1008E000012812D1A068281A216A88420DD36069B4
:1008F000281A616A884208D3207C401C20746561F4
:10090000E06B10B1207CE16B8847207870B9207EC5
:1009100000280BDDE068281AE169884206D3A06B45
:1009200010B1207EA16B88470020207600BFA6E78B
:1009300000B181637047704710B50446012C1ED189
:100940000F48007818B901200D49087002E0002016
:100950000B4908700A480078FFF7F6FC4FF4005185
:100960000848FFF73DFE012804D141030548FFF781
:1009700040FE04E04FF400510248FFF73CFE10BD7A
:10098000180000200010014070470000FFF7EEFC47
:100990000120FFF7D9FC1148FFF7F0FC0F48FFF7E3
:1009A00035FD41F28830FFF77BFD0D48FFF7E6FC8F
:1009B0000B48FFF72BFD4FF4FA60FFF771FD094874
:1009C000FFF7DCFC0748FFF721FD4FF4FA60FFF763
:1009D00067FD0020FFF7B8FC00BFFEE70000F04114
:1009E000000020420000B4427047000029B1064ACE
:1009F000D2690243044BDA6104E0034AD2698243BC
:100A0000014BDA61704700000010024029B1064A2C
:100A100092690243044B9A6104E0034A926982435B
:100A2000014B9A61704700000010024010B501218F
:100A30000348FFF7CCFD08B9012010BD0020FCE7FA
:100A40000008014010B504210348FFF7C0FD08B9B4
:100A5000012010BD0020FCE70008014008B501217D
:100A60000420FFF7D3FF002000900220ADF8000023
:100A700010208DF8030002208DF80200694602481C
:100A8000FFF71AFD08BD000000080140704710B5CF
:100A900000F002F810BD00000CB50020019000909D
:100AA0003348006840F480303149086000BF304866
:100AB000006800F4003000900198401C01900098FC
:100AC00018B90198B0F5A06FF1D12948006800F479
:100AD000003010B10120009001E00020009000984B
:100AE000012843D12348006840F0100021490860E4
:100AF0000846006820F0070008600846006840F0DB
:100B0000020008601A484068194948600846406871
:100B100048600846406840F4806048600846406885
:100B200020F47C1048600846406840F4E8104860B3
:100B30000846006840F08070086000BF0C480068FC
:100B400000F000700028F9D00948406820F0030048
:100B5000074948600846406840F00200486000BF0E
:100B60000348406800F00C000828F9D10CBD0000D3
:100B7000001002400020024002480068401C014969
:100B8000086070471400002010B51348006840F05A
:100B900001001149086008464068104908400E49A4
:100BA0004860084600680E4908400B49086008463E
:100BB000006820F4802008600846406820F4FE00A9
:100BC00048604FF41F008860FFF761FF4FF000603E
:100BD0000449086010BD0000001002400000FFF84A
:100BE000FFFFF6FE08ED00E021B1028842F00102AD
:100BF000028004E002884FF6FE731A4002807047BC
:100C000031B1B0F8442042F40042A0F8442005E09D
:100C1000B0F84420C2F30E02A0F844207047000050
:100C200070B5002400220023058C4FF6FE76354077
:100C30000584028C8388048B4FF68F752C40B51E7B
:100C40002C400D882C43751E2A400D892A434D885F
:100C50002A43144DA8420BD0134DA84208D0134D7F
:100C6000A84205D0124DA84202D0124DA84213D17D
:100C70004FF6F7752A404D892A434FF6FB752A40F7
:100C80008D882A434FF6FF652B404FF6FF552B40CA
:100C90008D892B43CD892B4383800483CD88858622
:100CA000028470BD002C014000340140004001402E
:100CB00000440140004801408186704700220288BC
:100CC0001D4B98420ED01D4B98420BD0B0F1804F77
:100CD00008D01B4B984205D01A4B984202D01A4BB1
:100CE000984204D14FF68F731A404B881A43174B22
:100CF000984207D0164B984204D04FF6FF431A4053
:100D0000CB881A4302808B8883850B8803850A4B26
:100D100098420BD0094B984208D00E4B984205D010
:100D20000D4B984202D00D4B984201D10B7A0386AD
:100D30000123838270470000002C014000340140F1
:100D40000004004000080040000C0040001000407B
:100D500000140040004001400044014000480140B0
:100D600000BFFEE702E008C8121F08C1002AFAD13E
:100D700070477047002001E001C1121F002AFBD11B
:100D80007047FFF7A9FAFFF7F1FAFFF7FFFD01E05F
:100D9000FFF7C8FAFCE70000B80D000800000020CB
:100DA0001C000000640D0008D40D00081C00002089
:100DB00084100000740D000800A24A040000000026
:100DC00000000000010203040607080900000000FB
:040DD000000000001F
:04000005080000ED02
:00000001FF
